{
  "_format": "hh-sol-artifact-1",
  "contractName": "FacadeP0",
  "sourceName": "contracts/p0/Facade.sol",
  "abi": [
    {
      "inputs": [
        {
          "internalType": "address",
          "name": "main_",
          "type": "address"
        }
      ],
      "stateMutability": "nonpayable",
      "type": "constructor"
    },
    {
      "inputs": [
        {
          "internalType": "int256",
          "name": "value",
          "type": "int256"
        }
      ],
      "name": "IntOutOfBounds",
      "type": "error"
    },
    {
      "inputs": [],
      "name": "claimRewards",
      "outputs": [],
      "stateMutability": "nonpayable",
      "type": "function"
    },
    {
      "inputs": [],
      "name": "currentAssets",
      "outputs": [
        {
          "internalType": "address[]",
          "name": "tokens",
          "type": "address[]"
        },
        {
          "internalType": "uint256[]",
          "name": "amounts",
          "type": "uint256[]"
        }
      ],
      "stateMutability": "nonpayable",
      "type": "function"
    },
    {
      "inputs": [],
      "name": "main",
      "outputs": [
        {
          "internalType": "contract MainP0",
          "name": "",
          "type": "address"
        }
      ],
      "stateMutability": "view",
      "type": "function"
    },
    {
      "inputs": [
        {
          "internalType": "address",
          "name": "account",
          "type": "address"
        }
      ],
      "name": "maxIssuable",
      "outputs": [
        {
          "internalType": "uint256",
          "name": "",
          "type": "uint256"
        }
      ],
      "stateMutability": "nonpayable",
      "type": "function"
    },
    {
      "inputs": [],
      "name": "runAuctionsForAllTraders",
      "outputs": [],
      "stateMutability": "nonpayable",
      "type": "function"
    },
    {
      "inputs": [],
      "name": "stRSRExchangeRate",
      "outputs": [
        {
          "internalType": "Fix",
          "name": "",
          "type": "int192"
        }
      ],
      "stateMutability": "nonpayable",
      "type": "function"
    },
    {
      "inputs": [],
      "name": "totalAssetValue",
      "outputs": [
        {
          "internalType": "Fix",
          "name": "total",
          "type": "int192"
        }
      ],
      "stateMutability": "nonpayable",
      "type": "function"
    }
  ],
  "bytecode": "0x608060405234801561001057600080fd5b506040516119c73803806119c783398101604081905261002f91610054565b600080546001600160a01b0319166001600160a01b0392909216919091179055610084565b60006020828403121561006657600080fd5b81516001600160a01b038116811461007d57600080fd5b9392505050565b611934806100936000396000f3fe608060405234801561001057600080fd5b506004361061007d5760003560e01c80638f90ae5a1161005b5780638f90ae5a146100b45780638fdf45d5146100bc578063ad26b49a146100dd578063dffeadd0146100f357600080fd5b8063372500ab146100825780636514f8c11461008c578063888b4688146100ac575b600080fd5b61008a61011e565b005b610094610478565b60405160179190910b81526020015b60405180910390f35b61008a6105da565b610094610844565b6100cf6100ca36600461145e565b610dcd565b6040519081526020016100a3565b6100e5610f54565b6040516100a392919061147b565b600054610106906001600160a01b031681565b6040516001600160a01b0390911681526020016100a3565b60008054906101000a90046001600160a01b03166001600160a01b031663dc8af5f66040518163ffffffff1660e01b815260040160206040518083038186803b15801561016a57600080fd5b505afa15801561017e573d6000803e3d6000fd5b505050506040513d601f19601f820116820180604052508101906101a291906114ff565b6001600160a01b031663e13d80f36040518163ffffffff1660e01b8152600401600060405180830381600087803b1580156101dc57600080fd5b505af11580156101f0573d6000803e3d6000fd5b5050505060008054906101000a90046001600160a01b03166001600160a01b031663531367636040518163ffffffff1660e01b815260040160206040518083038186803b15801561024057600080fd5b505afa158015610254573d6000803e3d6000fd5b505050506040513d601f19601f8201168201806040525081019061027891906114ff565b6001600160a01b031663e13d80f36040518163ffffffff1660e01b8152600401600060405180830381600087803b1580156102b257600080fd5b505af11580156102c6573d6000803e3d6000fd5b5050505060008054906101000a90046001600160a01b03166001600160a01b03166341bf0c4e6040518163ffffffff1660e01b815260040160206040518083038186803b15801561031657600080fd5b505afa15801561032a573d6000803e3d6000fd5b505050506040513d601f19601f8201168201806040525081019061034e91906114ff565b6001600160a01b031663e13d80f36040518163ffffffff1660e01b8152600401600060405180830381600087803b15801561038857600080fd5b505af115801561039c573d6000803e3d6000fd5b5050505060008054906101000a90046001600160a01b03166001600160a01b03166340c65f726040518163ffffffff1660e01b815260040160206040518083038186803b1580156103ec57600080fd5b505afa158015610400573d6000803e3d6000fd5b505050506040513d601f19601f8201168201806040525081019061042491906114ff565b6001600160a01b031663e13d80f36040518163ffffffff1660e01b8152600401600060405180830381600087803b15801561045e57600080fd5b505af1158015610472573d6000803e3d6000fd5b50505050565b60008060009054906101000a90046001600160a01b03166001600160a01b031663181783586040518163ffffffff1660e01b8152600401600060405180830381600087803b1580156104c957600080fd5b505af11580156104dd573d6000803e3d6000fd5b5050505060008054906101000a90046001600160a01b03166001600160a01b0316634780a5e56040518163ffffffff1660e01b815260040160206040518083038186803b15801561052d57600080fd5b505afa158015610541573d6000803e3d6000fd5b505050506040513d601f19601f8201168201806040525081019061056591906114ff565b6001600160a01b0316633ba0b9a96040518163ffffffff1660e01b815260040160206040518083038186803b15801561059d57600080fd5b505afa1580156105b1573d6000803e3d6000fd5b505050506040513d601f19601f820116820180604052508101906105d5919061151c565b905090565b60008054906101000a90046001600160a01b03166001600160a01b031663dc8af5f66040518163ffffffff1660e01b815260040160206040518083038186803b15801561062657600080fd5b505afa15801561063a573d6000803e3d6000fd5b505050506040513d601f19601f8201168201806040525081019061065e91906114ff565b6001600160a01b0316632c7f5cbd6040518163ffffffff1660e01b8152600401600060405180830381600087803b15801561069857600080fd5b505af11580156106ac573d6000803e3d6000fd5b5050505060008054906101000a90046001600160a01b03166001600160a01b031663531367636040518163ffffffff1660e01b815260040160206040518083038186803b1580156106fc57600080fd5b505afa158015610710573d6000803e3d6000fd5b505050506040513d601f19601f8201168201806040525081019061073491906114ff565b6001600160a01b0316632c7f5cbd6040518163ffffffff1660e01b8152600401600060405180830381600087803b15801561076e57600080fd5b505af1158015610782573d6000803e3d6000fd5b5050505060008054906101000a90046001600160a01b03166001600160a01b03166341bf0c4e6040518163ffffffff1660e01b815260040160206040518083038186803b1580156107d257600080fd5b505afa1580156107e6573d6000803e3d6000fd5b505050506040513d601f19601f8201168201806040525081019061080a91906114ff565b6001600160a01b0316632c7f5cbd6040518163ffffffff1660e01b8152600401600060405180830381600087803b15801561045e57600080fd5b60008060009054906101000a90046001600160a01b03166001600160a01b031663181783586040518163ffffffff1660e01b8152600401600060405180830381600087803b15801561089557600080fd5b505af11580156108a9573d6000803e3d6000fd5b5050505060008060009054906101000a90046001600160a01b03166001600160a01b031663979d7e866040518163ffffffff1660e01b815260040160206040518083038186803b1580156108fc57600080fd5b505afa158015610910573d6000803e3d6000fd5b505050506040513d601f19601f8201168201806040525081019061093491906114ff565b905060008060009054906101000a90046001600160a01b03166001600160a01b031663dc8af5f66040518163ffffffff1660e01b815260040160206040518083038186803b15801561098557600080fd5b505afa158015610999573d6000803e3d6000fd5b505050506040513d601f19601f820116820180604052508101906109bd91906114ff565b90506000826001600160a01b0316632510a1d76040518163ffffffff1660e01b815260040160006040518083038186803b1580156109fa57600080fd5b505afa158015610a0e573d6000803e3d6000fd5b505050506040513d6000823e601f3d908101601f19168201604052610a369190810190611565565b905060005b8151811015610dc6576000846001600160a01b031663cde2be8a848481518110610a6757610a6761162a565b60200260200101516040518263ffffffff1660e01b8152600401610a9a91906001600160a01b0391909116815260200190565b60206040518083038186803b158015610ab257600080fd5b505afa158015610ac6573d6000803e3d6000fd5b505050506040513d601f19601f82011682018060405250810190610aea91906114ff565b9050806001600160a01b031663c59b3d636040518163ffffffff1660e01b815260040160206040518083038186803b158015610b2557600080fd5b505afa158015610b39573d6000803e3d6000fd5b505050506040513d601f19601f82011682018060405250810190610b5d9190611640565b1580610c8e57506002856001600160a01b03166357a26a40858581518110610b8757610b8761162a565b60200260200101516040518263ffffffff1660e01b8152600401610bba91906001600160a01b0391909116815260200190565b60206040518083038186803b158015610bd257600080fd5b505afa158015610be6573d6000803e3d6000fd5b505050506040513d601f19601f82011682018060405250810190610c0a91906114ff565b6001600160a01b031663200d2ed26040518163ffffffff1660e01b815260040160206040518083038186803b158015610c4257600080fd5b505afa158015610c56573d6000803e3d6000fd5b505050506040513d601f19601f82011682018060405250810190610c7a9190611678565b6002811115610c8b57610c8b611662565b14155b15610db357610db0610da5826001600160a01b031663a035b1fe6040518163ffffffff1660e01b815260040160206040518083038186803b158015610cd257600080fd5b505afa158015610ce6573d6000803e3d6000fd5b505050506040513d601f19601f82011682018060405250810190610d0a919061151c565b6040517f5580f72a0000000000000000000000000000000000000000000000000000000081526001600160a01b038881166004830152851690635580f72a9060240160206040518083038186803b158015610d6457600080fd5b505afa158015610d78573d6000803e3d6000fd5b505050506040513d601f19601f82011682018060405250810190610d9c919061151c565b60170b90611321565b601788900b906113aa565b95505b5080610dbe816116af565b915050610a3b565b5050505090565b60008060009054906101000a90046001600160a01b03166001600160a01b031663181783586040518163ffffffff1660e01b8152600401600060405180830381600087803b158015610e1e57600080fd5b505af1158015610e32573d6000803e3d6000fd5b5050505060008054906101000a90046001600160a01b03166001600160a01b03166340c65f726040518163ffffffff1660e01b815260040160206040518083038186803b158015610e8257600080fd5b505afa158015610e96573d6000803e3d6000fd5b505050506040513d601f19601f82011682018060405250810190610eba91906114ff565b6040517f8fdf45d50000000000000000000000000000000000000000000000000000000081526001600160a01b0384811660048301529190911690638fdf45d59060240160206040518083038186803b158015610f1657600080fd5b505afa158015610f2a573d6000803e3d6000fd5b505050506040513d601f19601f82011682018060405250810190610f4e91906116ca565b92915050565b60008054604080517f18178358000000000000000000000000000000000000000000000000000000008152905160609384936001600160a01b0316926318178358926004808301939282900301818387803b158015610fb257600080fd5b505af1158015610fc6573d6000803e3d6000fd5b5050505060008060009054906101000a90046001600160a01b03166001600160a01b031663979d7e866040518163ffffffff1660e01b815260040160206040518083038186803b15801561101957600080fd5b505afa15801561102d573d6000803e3d6000fd5b505050506040513d601f19601f8201168201806040525081019061105191906114ff565b90506000816001600160a01b0316632510a1d76040518163ffffffff1660e01b815260040160006040518083038186803b15801561108e57600080fd5b505afa1580156110a2573d6000803e3d6000fd5b505050506040513d6000823e601f3d908101601f191682016040526110ca9190810190611565565b9050805167ffffffffffffffff8111156110e6576110e661153f565b60405190808252806020026020018201604052801561110f578160200160208202803683370190505b509350805167ffffffffffffffff81111561112c5761112c61153f565b604051908082528060200260200182016040528015611155578160200160208202803683370190505b50925060005b815181101561131a578181815181106111765761117661162a565b60200260200101518582815181106111905761119061162a565b60200260200101906001600160a01b031690816001600160a01b0316815250508181815181106111c2576111c261162a565b60200260200101516001600160a01b03166370a0823160008054906101000a90046001600160a01b03166001600160a01b031663dc8af5f66040518163ffffffff1660e01b815260040160206040518083038186803b15801561122457600080fd5b505afa158015611238573d6000803e3d6000fd5b505050506040513d601f19601f8201168201806040525081019061125c91906114ff565b6040517fffffffff0000000000000000000000000000000000000000000000000000000060e084901b1681526001600160a01b03909116600482015260240160206040518083038186803b1580156112b357600080fd5b505afa1580156112c7573d6000803e3d6000fd5b505050506040513d601f19601f820116820180604052508101906112eb91906116ca565b8482815181106112fd576112fd61162a565b602090810291909101015280611312816116af565b91505061115b565b5050509091565b6000808260170b8460170b61133691906116e3565b9050600080821215611364576002611355670de0b6b3a7640000611783565b61135f91906117c1565b611377565b6113776002670de0b6b3a76400006117c1565b60070b90506113a1670de0b6b3a76400006113928385611800565b61139c9190611858565b6113bd565b95945050505050565b60006113b68284611886565b9392505050565b60007fffffffffffffffff8000000000000000000000000000000000000000000000008212806114045750777fffffffffffffffffffffffffffffffffffffffffffffff82135b15611442576040517f6d0dce530000000000000000000000000000000000000000000000000000000081526004810183905260240160405180910390fd5b5090565b6001600160a01b038116811461145b57600080fd5b50565b60006020828403121561147057600080fd5b81356113b681611446565b604080825283519082018190526000906020906060840190828701845b828110156114bd5781516001600160a01b031684529284019290840190600101611498565b5050508381038285015284518082528583019183019060005b818110156114f2578351835292840192918401916001016114d6565b5090979650505050505050565b60006020828403121561151157600080fd5b81516113b681611446565b60006020828403121561152e57600080fd5b81518060170b81146113b657600080fd5b634e487b7160e01b600052604160045260246000fd5b805161156081611446565b919050565b6000602080838503121561157857600080fd5b825167ffffffffffffffff8082111561159057600080fd5b818501915085601f8301126115a457600080fd5b8151818111156115b6576115b661153f565b8060051b604051601f19603f830116810181811085821117156115db576115db61153f565b6040529182528482019250838101850191888311156115f957600080fd5b938501935b8285101561161e5761160f85611555565b845293850193928501926115fe565b98975050505050505050565b634e487b7160e01b600052603260045260246000fd5b60006020828403121561165257600080fd5b815180151581146113b657600080fd5b634e487b7160e01b600052602160045260246000fd5b60006020828403121561168a57600080fd5b8151600381106113b657600080fd5b634e487b7160e01b600052601160045260246000fd5b60006000198214156116c3576116c3611699565b5060010190565b6000602082840312156116dc57600080fd5b5051919050565b60007f7fffffffffffffffffffffffffffffffffffffffffffffffffffffffffffffff60008413600084138583048511828216161561172457611724611699565b600160ff1b600087128682058812818416161561174357611743611699565b6000871292508782058712848416161561175f5761175f611699565b8785058712818416161561177557611775611699565b505050929093029392505050565b60008160070b677fffffffffffffff198114156117a2576117a2611699565b60000392915050565b634e487b7160e01b600052601260045260246000fd5b60008160070b8360070b806117d8576117d86117ab565b6000198114677fffffffffffffff19831416156117f7576117f7611699565b90059392505050565b6000808212827f7fffffffffffffffffffffffffffffffffffffffffffffffffffffffffffffff0384138115161561183a5761183a611699565b82600160ff1b03841281161561185257611852611699565b50500190565b600082611867576118676117ab565b6000198314600160ff1b8314161561188157611881611699565b500590565b60008160170b8360170b6000821282777fffffffffffffffffffffffffffffffffffffffffffffff038213811516156118c1576118c1611699565b827fffffffffffffffff8000000000000000000000000000000000000000000000000382128116156118f5576118f5611699565b5001939250505056fea2646970667358221220fe5e7b4cb2393167c73e9b0b083f9d06ec4f40a8bc831488bc753688479dad3664736f6c63430008090033",
  "linkReferences": {},
  "deployedLinkReferences": {}
}